{
  "_format": "hh-sol-artifact-1",
  "contractName": "MerkleTree",
  "sourceName": "contracts/MerkleTree.sol",
  "abi": [
    {
      "inputs": [
        {
          "internalType": "address",
          "name": "_hasher",
          "type": "address"
        }
      ],
      "stateMutability": "nonpayable",
      "type": "constructor"
    },
    {
      "anonymous": false,
      "inputs": [
        {
          "indexed": false,
          "internalType": "uint32",
          "name": "index",
          "type": "uint32"
        },
        {
          "indexed": false,
          "internalType": "bytes32",
          "name": "hashValue",
          "type": "bytes32"
        }
      ],
      "name": "RootAdded",
      "type": "event"
    },
    {
      "inputs": [],
      "name": "FIELD_SIZE",
      "outputs": [
        {
          "internalType": "uint256",
          "name": "",
          "type": "uint256"
        }
      ],
      "stateMutability": "view",
      "type": "function"
    },
    {
      "inputs": [],
      "name": "ROOT_HISTORY_SIZE",
      "outputs": [
        {
          "internalType": "uint32",
          "name": "",
          "type": "uint32"
        }
      ],
      "stateMutability": "view",
      "type": "function"
    },
    {
      "inputs": [],
      "name": "ZERO_VALUE",
      "outputs": [
        {
          "internalType": "uint256",
          "name": "",
          "type": "uint256"
        }
      ],
      "stateMutability": "view",
      "type": "function"
    },
    {
      "inputs": [],
      "name": "currentRootIndex",
      "outputs": [
        {
          "internalType": "uint32",
          "name": "",
          "type": "uint32"
        }
      ],
      "stateMutability": "view",
      "type": "function"
    },
    {
      "inputs": [
        {
          "internalType": "uint256",
          "name": "",
          "type": "uint256"
        }
      ],
      "name": "filledSubtrees",
      "outputs": [
        {
          "internalType": "bytes32",
          "name": "",
          "type": "bytes32"
        }
      ],
      "stateMutability": "view",
      "type": "function"
    },
    {
      "inputs": [],
      "name": "getLastRoot",
      "outputs": [
        {
          "internalType": "bytes32",
          "name": "",
          "type": "bytes32"
        }
      ],
      "stateMutability": "view",
      "type": "function"
    },
    {
      "inputs": [
        {
          "internalType": "bytes32",
          "name": "_left",
          "type": "bytes32"
        },
        {
          "internalType": "bytes32",
          "name": "_right",
          "type": "bytes32"
        }
      ],
      "name": "hashLeftRight",
      "outputs": [
        {
          "internalType": "bytes32",
          "name": "",
          "type": "bytes32"
        }
      ],
      "stateMutability": "view",
      "type": "function"
    },
    {
      "inputs": [],
      "name": "hasher",
      "outputs": [
        {
          "internalType": "contract Hasher",
          "name": "",
          "type": "address"
        }
      ],
      "stateMutability": "view",
      "type": "function"
    },
    {
      "inputs": [
        {
          "internalType": "bytes32",
          "name": "_root",
          "type": "bytes32"
        }
      ],
      "name": "isKnownRoot",
      "outputs": [
        {
          "internalType": "bool",
          "name": "",
          "type": "bool"
        }
      ],
      "stateMutability": "view",
      "type": "function"
    },
    {
      "inputs": [],
      "name": "levels",
      "outputs": [
        {
          "internalType": "uint32",
          "name": "",
          "type": "uint32"
        }
      ],
      "stateMutability": "view",
      "type": "function"
    },
    {
      "inputs": [],
      "name": "nextIndex",
      "outputs": [
        {
          "internalType": "uint32",
          "name": "",
          "type": "uint32"
        }
      ],
      "stateMutability": "view",
      "type": "function"
    },
    {
      "inputs": [
        {
          "internalType": "uint256",
          "name": "",
          "type": "uint256"
        }
      ],
      "name": "roots",
      "outputs": [
        {
          "internalType": "bytes32",
          "name": "",
          "type": "bytes32"
        }
      ],
      "stateMutability": "view",
      "type": "function"
    },
    {
      "inputs": [
        {
          "internalType": "uint256",
          "name": "",
          "type": "uint256"
        }
      ],
      "name": "zeros",
      "outputs": [
        {
          "internalType": "bytes32",
          "name": "",
          "type": "bytes32"
        }
      ],
      "stateMutability": "view",
      "type": "function"
    }
  ],
  "bytecode": "0x60a0604052601463ffffffff1660809063ffffffff168152506000600360006101000a81548163ffffffff021916908363ffffffff1602179055506000600360046101000a81548163ffffffff021916908363ffffffff1602179055503480156200006957600080fd5b50604051620012e7380380620012e783398181016040528101906200008f919062000418565b806000806101000a81548173ffffffffffffffffffffffffffffffffffffffff021916908373ffffffffffffffffffffffffffffffffffffffff16021790555060007f2fe54c60d3acabf3343a35b6eba15db4821b340f76e741e2249685ed4899af6c60001b9050600281908060018154018082558091505060019003906000526020600020016000909190919091505560018190806001815401808255809150506001900390600052602060002001600090919091909150556000600190505b60805163ffffffff168163ffffffff161015620001e3576200017982836200021b60201b60201c565b9150600282908060018154018082558091505060019003906000526020600020016000909190919091505560018290806001815401808255809150506001900390600052602060002001600090919091909150558080620001da9062000489565b91505062000150565b50620001f681826200021b60201b60201c565b60046000606481106200020e576200020d620004bb565b5b018190555050506200074a565b60007f30644e72e131a029b85045b68181585d2833e84879b9709143e1f593f00000018360001c1062000285576040517f08c379a00000000000000000000000000000000000000000000000000000000081526004016200027c906200054b565b60405180910390fd5b7f30644e72e131a029b85045b68181585d2833e84879b9709143e1f593f00000018260001c10620002ed576040517f08c379a0000000000000000000000000000000000000000000000000000000008152600401620002e490620005e3565b60405180910390fd5b6000604051806040016040528085815260200184815250905060008054906101000a900473ffffffffffffffffffffffffffffffffffffffff1673ffffffffffffffffffffffffffffffffffffffff1663299e5660826040518263ffffffff1660e01b8152600401620003619190620006ca565b602060405180830381865afa1580156200037f573d6000803e3d6000fd5b505050506040513d601f19601f82011682018060405250810190620003a5919062000718565b91505092915050565b600080fd5b600073ffffffffffffffffffffffffffffffffffffffff82169050919050565b6000620003e082620003b3565b9050919050565b620003f281620003d3565b8114620003fe57600080fd5b50565b6000815190506200041281620003e7565b92915050565b600060208284031215620004315762000430620003ae565b5b6000620004418482850162000401565b91505092915050565b7f4e487b7100000000000000000000000000000000000000000000000000000000600052601160045260246000fd5b600063ffffffff82169050919050565b6000620004968262000479565b915063ffffffff821415620004b057620004af6200044a565b5b600182019050919050565b7f4e487b7100000000000000000000000000000000000000000000000000000000600052603260045260246000fd5b600082825260208201905092915050565b7f5f6c6566742073686f756c6420626520696e7369646520746865206669656c64600082015250565b600062000533602083620004ea565b91506200054082620004fb565b602082019050919050565b60006020820190508181036000830152620005668162000524565b9050919050565b7f5f72696768742073686f756c6420626520696e7369646520746865206669656c60008201527f6400000000000000000000000000000000000000000000000000000000000000602082015250565b6000620005cb602183620004ea565b9150620005d8826200056d565b604082019050919050565b60006020820190508181036000830152620005fe81620005bc565b9050919050565b600060029050919050565b600081905092915050565b6000819050919050565b6000819050919050565b6200063a8162000625565b82525050565b60006200064e83836200062f565b60208301905092915050565b6000602082019050919050565b620006728162000605565b6200067e818462000610565b92506200068b826200061b565b8060005b83811015620006c2578151620006a6878262000640565b9650620006b3836200065a565b9250506001810190506200068f565b505050505050565b6000604082019050620006e1600083018462000667565b92915050565b620006f28162000625565b8114620006fe57600080fd5b50565b6000815190506200071281620006e7565b92915050565b600060208284031215620007315762000730620003ae565b5b6000620007418482850162000701565b91505092915050565b608051610b816200076660003960006104620152610b816000f3fe608060405234801561001057600080fd5b50600436106100cf5760003560e01c8063c2b40ae41161008c578063ec73295911610066578063ec7329591461022a578063ed33639f14610248578063f178e47c14610266578063fc7e9c6f14610296576100cf565b8063c2b40ae4146101ac578063cd87a3b4146101dc578063e8295588146101fa576100cf565b806338bf282e146100d4578063414a37ba146101045780634ecf518b146101225780636d9833e31461014057806390eeb02b14610170578063ba70f7571461018e575b600080fd5b6100ee60048036038101906100e9919061067e565b6102b4565b6040516100fb91906106cd565b60405180910390f35b61010c61043c565b6040516101199190610701565b60405180910390f35b61012a610460565b604051610137919061073b565b60405180910390f35b61015a60048036038101906101559190610756565b610484565b604051610167919061079e565b60405180910390f35b610178610532565b604051610185919061073b565b60405180910390f35b610196610548565b6040516101a391906106cd565b60405180910390f35b6101c660048036038101906101c191906107e5565b61057d565b6040516101d391906106cd565b60405180910390f35b6101e4610598565b6040516101f1919061073b565b60405180910390f35b610214600480360381019061020f91906107e5565b61059d565b60405161022191906106cd565b60405180910390f35b6102326105c1565b60405161023f9190610701565b60405180910390f35b6102506105e5565b60405161025d9190610891565b60405180910390f35b610280600480360381019061027b91906107e5565b610609565b60405161028d91906106cd565b60405180910390f35b61029e61062d565b6040516102ab919061073b565b60405180910390f35b60007f30644e72e131a029b85045b68181585d2833e84879b9709143e1f593f00000018360001c1061031b576040517f08c379a000000000000000000000000000000000000000000000000000000000815260040161031290610909565b60405180910390fd5b7f30644e72e131a029b85045b68181585d2833e84879b9709143e1f593f00000018260001c10610380576040517f08c379a00000000000000000000000000000000000000000000000000000000081526004016103779061099b565b60405180910390fd5b6000604051806040016040528085815260200184815250905060008054906101000a900473ffffffffffffffffffffffffffffffffffffffff1673ffffffffffffffffffffffffffffffffffffffff1663299e5660826040518263ffffffff1660e01b81526004016103f29190610a66565b602060405180830381865afa15801561040f573d6000803e3d6000fd5b505050506040513d601f19601f820116820180604052508101906104339190610a96565b91505092915050565b7f30644e72e131a029b85045b68181585d2833e84879b9709143e1f593f000000181565b7f000000000000000000000000000000000000000000000000000000000000000081565b60008060001b82141561049a576000905061052d565b6000600360009054906101000a900463ffffffff1690505b60048163ffffffff16606481106104cc576104cb610ac3565b5b01548314156104df57600191505061052d565b60008163ffffffff1614156104f357606490505b80806104fe90610b21565b915050600360009054906101000a900463ffffffff1663ffffffff168163ffffffff1614156104b25760009150505b919050565b600360009054906101000a900463ffffffff1681565b60006004600360009054906101000a900463ffffffff1663ffffffff166064811061057657610575610ac3565b5b0154905090565b6004816064811061058d57600080fd5b016000915090505481565b606481565b600281815481106105ad57600080fd5b906000526020600020016000915090505481565b7f2fe54c60d3acabf3343a35b6eba15db4821b340f76e741e2249685ed4899af6c81565b60008054906101000a900473ffffffffffffffffffffffffffffffffffffffff1681565b6001818154811061061957600080fd5b906000526020600020016000915090505481565b600360049054906101000a900463ffffffff1681565b600080fd5b6000819050919050565b61065b81610648565b811461066657600080fd5b50565b60008135905061067881610652565b92915050565b6000806040838503121561069557610694610643565b5b60006106a385828601610669565b92505060206106b485828601610669565b9150509250929050565b6106c781610648565b82525050565b60006020820190506106e260008301846106be565b92915050565b6000819050919050565b6106fb816106e8565b82525050565b600060208201905061071660008301846106f2565b92915050565b600063ffffffff82169050919050565b6107358161071c565b82525050565b6000602082019050610750600083018461072c565b92915050565b60006020828403121561076c5761076b610643565b5b600061077a84828501610669565b91505092915050565b60008115159050919050565b61079881610783565b82525050565b60006020820190506107b3600083018461078f565b92915050565b6107c2816106e8565b81146107cd57600080fd5b50565b6000813590506107df816107b9565b92915050565b6000602082840312156107fb576107fa610643565b5b6000610809848285016107d0565b91505092915050565b600073ffffffffffffffffffffffffffffffffffffffff82169050919050565b6000819050919050565b600061085761085261084d84610812565b610832565b610812565b9050919050565b60006108698261083c565b9050919050565b600061087b8261085e565b9050919050565b61088b81610870565b82525050565b60006020820190506108a66000830184610882565b92915050565b600082825260208201905092915050565b7f5f6c6566742073686f756c6420626520696e7369646520746865206669656c64600082015250565b60006108f36020836108ac565b91506108fe826108bd565b602082019050919050565b60006020820190508181036000830152610922816108e6565b9050919050565b7f5f72696768742073686f756c6420626520696e7369646520746865206669656c60008201527f6400000000000000000000000000000000000000000000000000000000000000602082015250565b60006109856021836108ac565b915061099082610929565b604082019050919050565b600060208201905081810360008301526109b481610978565b9050919050565b600060029050919050565b600081905092915050565b6000819050919050565b6109e481610648565b82525050565b60006109f683836109db565b60208301905092915050565b6000602082019050919050565b610a18816109bb565b610a2281846109c6565b9250610a2d826109d1565b8060005b83811015610a5e578151610a4587826109ea565b9650610a5083610a02565b925050600181019050610a31565b505050505050565b6000604082019050610a7b6000830184610a0f565b92915050565b600081519050610a9081610652565b92915050565b600060208284031215610aac57610aab610643565b5b6000610aba84828501610a81565b91505092915050565b7f4e487b7100000000000000000000000000000000000000000000000000000000600052603260045260246000fd5b7f4e487b7100000000000000000000000000000000000000000000000000000000600052601160045260246000fd5b6000610b2c8261071c565b91506000821415610b4057610b3f610af2565b5b60018203905091905056fea26469706673582212201cb528892a8510bfb9a28c3715f65a358ad4fbcd6f880c9658b9d42171dcb66b64736f6c634300080a0033",
  "linkReferences": {},
  "deployedLinkReferences": {}
}