{"contracts/Verifier.sol":{"Verifier":{"abi":[{"inputs":[{"internalType":"uint256[2]","name":"a","type":"uint256[2]"},{"internalType":"uint256[2][2]","name":"b","type":"uint256[2][2]"},{"internalType":"uint256[2]","name":"c","type":"uint256[2]"},{"internalType":"uint256[6]","name":"input","type":"uint256[6]"}],"name":"verifyProof","outputs":[{"internalType":"bool","name":"r","type":"bool"}],"stateMutability":"view","type":"function"}],"evm":{"bytecode":{"linkReferences":{},"object":"608060405234801561001057600080fd5b50611ccb806100206000396000f3fe608060405234801561001057600080fd5b506004361061002b5760003560e01c8063f398789b14610030575b600080fd5b61004a60048036038101906100459190611772565b610060565b60405161005791906117f6565b60405180910390f35b600061006a611342565b60405180604001604052808760006002811061008957610088611811565b5b60200201518152602001876001600281106100a7576100a6611811565b5b6020020151815250816000018190525060405180604001604052806040518060400160405280886000600281106100e1576100e0611811565b5b60200201516000600281106100f9576100f8611811565b5b602002015181526020018860006002811061011757610116611811565b5b602002015160016002811061012f5761012e611811565b5b6020020151815250815260200160405180604001604052808860016002811061015b5761015a611811565b5b602002015160006002811061017357610172611811565b5b602002015181526020018860016002811061019157610190611811565b5b60200201516001600281106101a9576101a8611811565b5b602002015181525081525081602001819052506040518060400160405280856000600281106101db576101da611811565b5b60200201518152602001856001600281106101f9576101f8611811565b5b602002015181525081604001819052506000600667ffffffffffffffff811115610226576102256114a9565b5b6040519080825280602002602001820160405280156102545781602001602082028036833780820191505090505b50905060005b60068110156102ad5784816006811061027657610275611811565b5b602002015182828151811061028e5761028d611811565b5b60200260200101818152505080806102a59061186f565b91505061025a565b5060006102ba82846102da565b14156102cb576001925050506102d2565b6000925050505b949350505050565b6000807f30644e72e131a029b85045b68181585d2833e84879b9709143e1f593f00000019050600061030a6104cd565b90508060800151516001865161032091906118b8565b14610360576040517f08c379a00000000000000000000000000000000000000000000000000000000081526004016103579061196b565b60405180910390fd5b60006040518060400160405280600081526020016000815250905060005b865181101561044f578387828151811061039b5761039a611811565b5b6020026020010151106103e3576040517f08c379a00000000000000000000000000000000000000000000000000000000081526004016103da906119d7565b60405180910390fd5b61043a8261043585608001516001856103fc91906118b8565b8151811061040d5761040c611811565b5b60200260200101518a858151811061042857610427611811565b5b6020026020010151610b29565b610c06565b915080806104479061186f565b91505061037e565b5061047981836080015160008151811061046c5761046b611811565b5b6020026020010151610c06565b90506104af61048b8660000151610d09565b8660200151846000015185602001518587604001518b604001518960600151610dae565b6104bf57600193505050506104c7565b600093505050505b92915050565b6104d5611375565b60405180604001604052807f2d4d9aa7e302d9df41749d5507949d05dbea33fbb16c643b22f599a2be6df2e281526020017f14bedd503c37ceb061d8ec60209fe345ce89830a19230301f076caff004d19268152508160000181905250604051806040016040528060405180604001604052807f0967032fcbf776d1afc985f88877f182d38480a653f2decaa9794cbc3bf3060c81526020017f0e187847ad4c798374d0d6732bf501847dd68bc0e071241e0213bc7fc13db7ab815250815260200160405180604001604052807f304cfbd1e08a704a99f5e847d93f8c3caafddec46b7a0d379da69a4d112346a781526020017f1739c1b1a457a8c7313123d24d2f9192f896b7c63eea05a9d57f06547ad0cec88152508152508160200181905250604051806040016040528060405180604001604052807f198e9393920d483a7260bfb731fb5d25f1aa493335a9e71297e485b7aef312c281526020017f1800deef121f1e76426a00665e5c4479674322d4f75edadd46debd5cd992f6ed815250815260200160405180604001604052807f090689d0585ff075ec9e99ad690c3395bc4b313370b38ef355acdadcd122975b81526020017f12c85ea5db8c6deb4aab71808dcb408fe3d1e7690c43d37b4ce6cc0166fa7daa8152508152508160400181905250604051806040016040528060405180604001604052807f198e9393920d483a7260bfb731fb5d25f1aa493335a9e71297e485b7aef312c281526020017f1800deef121f1e76426a00665e5c4479674322d4f75edadd46debd5cd992f6ed815250815260200160405180604001604052807f090689d0585ff075ec9e99ad690c3395bc4b313370b38ef355acdadcd122975b81526020017f12c85ea5db8c6deb4aab71808dcb408fe3d1e7690c43d37b4ce6cc0166fa7daa8152508152508160600181905250600767ffffffffffffffff81111561079c5761079b6114a9565b5b6040519080825280602002602001820160405280156107d557816020015b6107c26113bc565b8152602001906001900390816107ba5790505b50816080018190525060405180604001604052807f0c8fc092506af9707ceaab42106af687ec4c9eab2e88b8df2df0db5962bcfa1581526020017f17bf781e6f8faecc295ac281ebd5550e12fb018edf45fb09e13f184a5814bbd4815250816080015160008151811061084b5761084a611811565b5b602002602001018190525060405180604001604052807f174377b24ea0b6abc42408a6892ef31769d70dce6ed76fd39691b1e909414f6f81526020017f152b5e322bf0780f97e5efa80858080a0b291c12c62bbeec4865639c5729be5681525081608001516001815181106108c3576108c2611811565b5b602002602001018190525060405180604001604052807f1ca14260051a469f21655c6fd0370876cddacc9619404f530a6830c91b1b6afe81526020017f1342a2c0ffa6c21ab0bdb58a7b2e0aabf457521ff4c0223089a94deba34aadbd815250816080015160028151811061093b5761093a611811565b5b602002602001018190525060405180604001604052807f09bbabe5293638c19d466c94d9b9f570e1fb4f8c3aec949c7772ad9392a9beb281526020017f1bb6b431a384b97dba67631c74b2969a31170ac85f56c661cd5e1fdcfcc4e3c981525081608001516003815181106109b3576109b2611811565b5b602002602001018190525060405180604001604052807f3008304e9fa8eca41dd09222b75eb457838ba5500fff9b8b6b7b7fcfffb1a70e81526020017f2b0a58bb496afc8e40fe703028ea94e76cc2b5351a5405b78bff5ce4a9bbd1ae8152508160800151600481518110610a2b57610a2a611811565b5b602002602001018190525060405180604001604052807f05482eb99644bc77325ef578d710055268edadfb863ffdaf0787436a79f0760a81526020017f07e203b245fa9c3e1463c6e370c8ae5f81bf9c1d7342a595ebb5325ab9081ad58152508160800151600581518110610aa357610aa2611811565b5b602002602001018190525060405180604001604052807f0320a6a99699811e25a2e1730843d9e32985680b54eb4f18b020ddb8a7c08dfd81526020017f12ac8dd307148371b94e1af57b73c713eeb4ae71ff8d24bad1122b3a1704fd668152508160800151600681518110610b1b57610b1a611811565b5b602002602001018190525090565b610b316113bc565b610b396113d6565b836000015181600060038110610b5257610b51611811565b5b602002018181525050836020015181600160038110610b7457610b73611811565b5b6020020181815250508281600260038110610b9257610b91611811565b5b602002018181525050600060608360808460076107d05a03fa90508060008114610bbb57610bbd565bfe5b5080610bfe576040517f08c379a0000000000000000000000000000000000000000000000000000000008152600401610bf590611a43565b60405180910390fd5b505092915050565b610c0e6113bc565b610c166113f8565b836000015181600060048110610c2f57610c2e611811565b5b602002018181525050836020015181600160048110610c5157610c50611811565b5b602002018181525050826000015181600260048110610c7357610c72611811565b5b602002018181525050826020015181600360048110610c9557610c94611811565b5b602002018181525050600060608360c08460066107d05a03fa90508060008114610cbe57610cc0565bfe5b5080610d01576040517f08c379a0000000000000000000000000000000000000000000000000000000008152600401610cf890611aaf565b60405180910390fd5b505092915050565b610d116113bc565b60007f30644e72e131a029b85045b68181585d97816a916871ca8d3c208c16d87cfd47905060008360000151148015610d4e575060008360200151145b15610d72576040518060400160405280600081526020016000815250915050610da9565b604051806040016040528084600001518152602001828560200151610d979190611afe565b83610da29190611b2f565b8152509150505b919050565b600080600467ffffffffffffffff811115610dcc57610dcb6114a9565b5b604051908082528060200260200182016040528015610e0557816020015b610df26113bc565b815260200190600190039081610dea5790505b5090506000600467ffffffffffffffff811115610e2557610e246114a9565b5b604051908082528060200260200182016040528015610e5e57816020015b610e4b61141a565b815260200190600190039081610e435790505b5090508a82600081518110610e7657610e75611811565b5b60200260200101819052508882600181518110610e9657610e95611811565b5b60200260200101819052508682600281518110610eb657610eb5611811565b5b60200260200101819052508482600381518110610ed657610ed5611811565b5b60200260200101819052508981600081518110610ef657610ef5611811565b5b60200260200101819052508781600181518110610f1657610f15611811565b5b60200260200101819052508581600281518110610f3657610f35611811565b5b60200260200101819052508381600381518110610f5657610f55611811565b5b6020026020010181905250610f6b8282610f7b565b9250505098975050505050505050565b60008151835114610fc1576040517f08c379a0000000000000000000000000000000000000000000000000000000008152600401610fb890611baf565b60405180910390fd5b6000835190506000600682610fd69190611bcf565b905060008167ffffffffffffffff811115610ff457610ff36114a9565b5b6040519080825280602002602001820160405280156110225781602001602082028036833780820191505090505b50905060005b838110156112a75786818151811061104357611042611811565b5b60200260200101516000015182600060068461105f9190611bcf565b61106991906118b8565b8151811061107a57611079611811565b5b60200260200101818152505086818151811061109957611098611811565b5b6020026020010151602001518260016006846110b59190611bcf565b6110bf91906118b8565b815181106110d0576110cf611811565b5b6020026020010181815250508581815181106110ef576110ee611811565b5b60200260200101516000015160006002811061110e5761110d611811565b5b60200201518260026006846111239190611bcf565b61112d91906118b8565b8151811061113e5761113d611811565b5b60200260200101818152505085818151811061115d5761115c611811565b5b60200260200101516000015160016002811061117c5761117b611811565b5b60200201518260036006846111919190611bcf565b61119b91906118b8565b815181106111ac576111ab611811565b5b6020026020010181815250508581815181106111cb576111ca611811565b5b6020026020010151602001516000600281106111ea576111e9611811565b5b60200201518260046006846111ff9190611bcf565b61120991906118b8565b8151811061121a57611219611811565b5b60200260200101818152505085818151811061123957611238611811565b5b60200260200101516020015160016002811061125857611257611811565b5b602002015182600560068461126d9190611bcf565b61127791906118b8565b8151811061128857611287611811565b5b602002602001018181525050808061129f9061186f565b915050611028565b506112b0611440565b6000602082602086026020860160086107d05a03fa905080600081146112d5576112d7565bfe5b5080611318576040517f08c379a000000000000000000000000000000000000000000000000000000000815260040161130f90611c75565b60405180910390fd5b60008260006001811061132e5761132d611811565b5b602002015114159550505050505092915050565b60405180606001604052806113556113bc565b815260200161136261141a565b815260200161136f6113bc565b81525090565b6040518060a001604052806113886113bc565b815260200161139561141a565b81526020016113a261141a565b81526020016113af61141a565b8152602001606081525090565b604051806040016040528060008152602001600081525090565b6040518060600160405280600390602082028036833780820191505090505090565b6040518060800160405280600490602082028036833780820191505090505090565b604051806040016040528061142d611462565b815260200161143a611462565b81525090565b6040518060200160405280600190602082028036833780820191505090505090565b6040518060400160405280600290602082028036833780820191505090505090565b6000604051905090565b600080fd5b600080fd5b6000601f19601f8301169050919050565b7f4e487b7100000000000000000000000000000000000000000000000000000000600052604160045260246000fd5b6114e182611498565b810181811067ffffffffffffffff82111715611500576114ff6114a9565b5b80604052505050565b6000611513611484565b905061151f82826114d8565b919050565b600067ffffffffffffffff82111561153f5761153e6114a9565b5b602082029050919050565b600080fd5b6000819050919050565b6115628161154f565b811461156d57600080fd5b50565b60008135905061157f81611559565b92915050565b600061159861159384611524565b611509565b905080602084028301858111156115b2576115b161154a565b5b835b818110156115db57806115c78882611570565b8452602084019350506020810190506115b4565b5050509392505050565b600082601f8301126115fa576115f9611493565b5b6002611607848285611585565b91505092915050565b600067ffffffffffffffff82111561162b5761162a6114a9565b5b602082029050919050565b600061164961164484611610565b611509565b905080604084028301858111156116635761166261154a565b5b835b8181101561168c578061167888826115e5565b845260208401935050604081019050611665565b5050509392505050565b600082601f8301126116ab576116aa611493565b5b60026116b8848285611636565b91505092915050565b600067ffffffffffffffff8211156116dc576116db6114a9565b5b602082029050919050565b60006116fa6116f5846116c1565b611509565b905080602084028301858111156117145761171361154a565b5b835b8181101561173d57806117298882611570565b845260208401935050602081019050611716565b5050509392505050565b600082601f83011261175c5761175b611493565b5b60066117698482856116e7565b91505092915050565b6000806000806101c0858703121561178d5761178c61148e565b5b600061179b878288016115e5565b94505060406117ac87828801611696565b93505060c06117bd878288016115e5565b9250506101006117cf87828801611747565b91505092959194509250565b60008115159050919050565b6117f0816117db565b82525050565b600060208201905061180b60008301846117e7565b92915050565b7f4e487b7100000000000000000000000000000000000000000000000000000000600052603260045260246000fd5b7f4e487b7100000000000000000000000000000000000000000000000000000000600052601160045260246000fd5b600061187a8261154f565b91507fffffffffffffffffffffffffffffffffffffffffffffffffffffffffffffffff8214156118ad576118ac611840565b5b600182019050919050565b60006118c38261154f565b91506118ce8361154f565b9250827fffffffffffffffffffffffffffffffffffffffffffffffffffffffffffffffff0382111561190357611902611840565b5b828201905092915050565b600082825260208201905092915050565b7f76657269666965722d6261642d696e7075740000000000000000000000000000600082015250565b600061195560128361190e565b91506119608261191f565b602082019050919050565b6000602082019050818103600083015261198481611948565b9050919050565b7f76657269666965722d6774652d736e61726b2d7363616c61722d6669656c6400600082015250565b60006119c1601f8361190e565b91506119cc8261198b565b602082019050919050565b600060208201905081810360008301526119f0816119b4565b9050919050565b7f70616972696e672d6d756c2d6661696c65640000000000000000000000000000600082015250565b6000611a2d60128361190e565b9150611a38826119f7565b602082019050919050565b60006020820190508181036000830152611a5c81611a20565b9050919050565b7f70616972696e672d6164642d6661696c65640000000000000000000000000000600082015250565b6000611a9960128361190e565b9150611aa482611a63565b602082019050919050565b60006020820190508181036000830152611ac881611a8c565b9050919050565b7f4e487b7100000000000000000000000000000000000000000000000000000000600052601260045260246000fd5b6000611b098261154f565b9150611b148361154f565b925082611b2457611b23611acf565b5b828206905092915050565b6000611b3a8261154f565b9150611b458361154f565b925082821015611b5857611b57611840565b5b828203905092915050565b7f70616972696e672d6c656e677468732d6661696c656400000000000000000000600082015250565b6000611b9960168361190e565b9150611ba482611b63565b602082019050919050565b60006020820190508181036000830152611bc881611b8c565b9050919050565b6000611bda8261154f565b9150611be58361154f565b9250817fffffffffffffffffffffffffffffffffffffffffffffffffffffffffffffffff0483118215151615611c1e57611c1d611840565b5b828202905092915050565b7f70616972696e672d6f70636f64652d6661696c65640000000000000000000000600082015250565b6000611c5f60158361190e565b9150611c6a82611c29565b602082019050919050565b60006020820190508181036000830152611c8e81611c52565b905091905056fea2646970667358221220906c931253a25b2eda6f2f6d2b676adc115fee3158270b3b6509ef49773e2c1a64736f6c634300080a0033","opcodes":"PUSH1 0x80 PUSH1 0x40 MSTORE CALLVALUE DUP1 ISZERO PUSH2 0x10 JUMPI PUSH1 0x0 DUP1 REVERT JUMPDEST POP PUSH2 0x1CCB DUP1 PUSH2 0x20 PUSH1 0x0 CODECOPY PUSH1 0x0 RETURN INVALID PUSH1 0x80 PUSH1 0x40 MSTORE CALLVALUE DUP1 ISZERO PUSH2 0x10 JUMPI PUSH1 0x0 DUP1 REVERT JUMPDEST POP PUSH1 0x4 CALLDATASIZE LT PUSH2 0x2B JUMPI PUSH1 0x0 CALLDATALOAD PUSH1 0xE0 SHR DUP1 PUSH4 0xF398789B EQ PUSH2 0x30 JUMPI JUMPDEST PUSH1 0x0 DUP1 REVERT JUMPDEST PUSH2 0x4A PUSH1 0x4 DUP1 CALLDATASIZE SUB DUP2 ADD SWAP1 PUSH2 0x45 SWAP2 SWAP1 PUSH2 0x1772 JUMP JUMPDEST PUSH2 0x60 JUMP JUMPDEST PUSH1 0x40 MLOAD PUSH2 0x57 SWAP2 SWAP1 PUSH2 0x17F6 JUMP JUMPDEST PUSH1 0x40 MLOAD DUP1 SWAP2 SUB SWAP1 RETURN JUMPDEST PUSH1 0x0 PUSH2 0x6A PUSH2 0x1342 JUMP JUMPDEST PUSH1 0x40 MLOAD DUP1 PUSH1 0x40 ADD PUSH1 0x40 MSTORE DUP1 DUP8 PUSH1 0x0 PUSH1 0x2 DUP2 LT PUSH2 0x89 JUMPI PUSH2 0x88 PUSH2 0x1811 JUMP JUMPDEST JUMPDEST PUSH1 0x20 MUL ADD MLOAD DUP2 MSTORE PUSH1 0x20 ADD DUP8 PUSH1 0x1 PUSH1 0x2 DUP2 LT PUSH2 0xA7 JUMPI PUSH2 0xA6 PUSH2 0x1811 JUMP JUMPDEST JUMPDEST PUSH1 0x20 MUL ADD MLOAD DUP2 MSTORE POP DUP2 PUSH1 0x0 ADD DUP2 SWAP1 MSTORE POP PUSH1 0x40 MLOAD DUP1 PUSH1 0x40 ADD PUSH1 0x40 MSTORE DUP1 PUSH1 0x40 MLOAD DUP1 PUSH1 0x40 ADD PUSH1 0x40 MSTORE DUP1 DUP9 PUSH1 0x0 PUSH1 0x2 DUP2 LT PUSH2 0xE1 JUMPI PUSH2 0xE0 PUSH2 0x1811 JUMP JUMPDEST JUMPDEST PUSH1 0x20 MUL ADD MLOAD PUSH1 0x0 PUSH1 0x2 DUP2 LT PUSH2 0xF9 JUMPI PUSH2 0xF8 PUSH2 0x1811 JUMP JUMPDEST JUMPDEST PUSH1 0x20 MUL ADD MLOAD DUP2 MSTORE PUSH1 0x20 ADD DUP9 PUSH1 0x0 PUSH1 0x2 DUP2 LT PUSH2 0x117 JUMPI PUSH2 0x116 PUSH2 0x1811 JUMP JUMPDEST JUMPDEST PUSH1 0x20 MUL ADD MLOAD PUSH1 0x1 PUSH1 0x2 DUP2 LT PUSH2 0x12F JUMPI PUSH2 0x12E PUSH2 0x1811 JUMP JUMPDEST JUMPDEST PUSH1 0x20 MUL ADD MLOAD DUP2 MSTORE POP DUP2 MSTORE PUSH1 0x20 ADD PUSH1 0x40 MLOAD DUP1 PUSH1 0x40 ADD PUSH1 0x40 MSTORE DUP1 DUP9 PUSH1 0x1 PUSH1 0x2 DUP2 LT PUSH2 0x15B JUMPI PUSH2 0x15A PUSH2 0x1811 JUMP JUMPDEST JUMPDEST PUSH1 0x20 MUL ADD MLOAD PUSH1 0x0 PUSH1 0x2 DUP2 LT PUSH2 0x173 JUMPI PUSH2 0x172 PUSH2 0x1811 JUMP JUMPDEST JUMPDEST PUSH1 0x20 MUL ADD MLOAD DUP2 MSTORE PUSH1 0x20 ADD DUP9 PUSH1 0x1 PUSH1 0x2 DUP2 LT PUSH2 0x191 JUMPI PUSH2 0x190 PUSH2 0x1811 JUMP JUMPDEST JUMPDEST PUSH1 0x20 MUL ADD MLOAD PUSH1 0x1 PUSH1 0x2 DUP2 LT PUSH2 0x1A9 JUMPI PUSH2 0x1A8 PUSH2 0x1811 JUMP JUMPDEST JUMPDEST PUSH1 0x20 MUL ADD MLOAD DUP2 MSTORE POP DUP2 MSTORE POP DUP2 PUSH1 0x20 ADD DUP2 SWAP1 MSTORE POP PUSH1 0x40 MLOAD DUP1 PUSH1 0x40 ADD PUSH1 0x40 MSTORE DUP1 DUP6 PUSH1 0x0 PUSH1 0x2 DUP2 LT PUSH2 0x1DB JUMPI PUSH2 0x1DA PUSH2 0x1811 JUMP JUMPDEST JUMPDEST PUSH1 0x20 MUL ADD MLOAD DUP2 MSTORE PUSH1 0x20 ADD DUP6 PUSH1 0x1 PUSH1 0x2 DUP2 LT PUSH2 0x1F9 JUMPI PUSH2 0x1F8 PUSH2 0x1811 JUMP JUMPDEST JUMPDEST PUSH1 0x20 MUL ADD MLOAD DUP2 MSTORE POP DUP2 PUSH1 0x40 ADD DUP2 SWAP1 MSTORE POP PUSH1 0x0 PUSH1 0x6 PUSH8 0xFFFFFFFFFFFFFFFF DUP2 GT ISZERO PUSH2 0x226 JUMPI PUSH2 0x225 PUSH2 0x14A9 JUMP JUMPDEST JUMPDEST PUSH1 0x40 MLOAD SWAP1 DUP1 DUP3 MSTORE DUP1 PUSH1 0x20 MUL PUSH1 0x20 ADD DUP3 ADD PUSH1 0x40 MSTORE DUP1 ISZERO PUSH2 0x254 JUMPI DUP2 PUSH1 0x20 ADD PUSH1 0x20 DUP3 MUL DUP1 CALLDATASIZE DUP4 CALLDATACOPY DUP1 DUP3 ADD SWAP2 POP POP SWAP1 POP JUMPDEST POP SWAP1 POP PUSH1 0x0 JUMPDEST PUSH1 0x6 DUP2 LT ISZERO PUSH2 0x2AD JUMPI DUP5 DUP2 PUSH1 0x6 DUP2 LT PUSH2 0x276 JUMPI PUSH2 0x275 PUSH2 0x1811 JUMP JUMPDEST JUMPDEST PUSH1 0x20 MUL ADD MLOAD DUP3 DUP3 DUP2 MLOAD DUP2 LT PUSH2 0x28E JUMPI PUSH2 0x28D PUSH2 0x1811 JUMP JUMPDEST JUMPDEST PUSH1 0x20 MUL PUSH1 0x20 ADD ADD DUP2 DUP2 MSTORE POP POP DUP1 DUP1 PUSH2 0x2A5 SWAP1 PUSH2 0x186F JUMP JUMPDEST SWAP2 POP POP PUSH2 0x25A JUMP JUMPDEST POP PUSH1 0x0 PUSH2 0x2BA DUP3 DUP5 PUSH2 0x2DA JUMP JUMPDEST EQ ISZERO PUSH2 0x2CB JUMPI PUSH1 0x1 SWAP3 POP POP POP PUSH2 0x2D2 JUMP JUMPDEST PUSH1 0x0 SWAP3 POP POP POP JUMPDEST SWAP5 SWAP4 POP POP POP POP JUMP JUMPDEST PUSH1 0x0 DUP1 PUSH32 0x30644E72E131A029B85045B68181585D2833E84879B9709143E1F593F0000001 SWAP1 POP PUSH1 0x0 PUSH2 0x30A PUSH2 0x4CD JUMP JUMPDEST SWAP1 POP DUP1 PUSH1 0x80 ADD MLOAD MLOAD PUSH1 0x1 DUP7 MLOAD PUSH2 0x320 SWAP2 SWAP1 PUSH2 0x18B8 JUMP JUMPDEST EQ PUSH2 0x360 JUMPI PUSH1 0x40 MLOAD PUSH32 0x8C379A000000000000000000000000000000000000000000000000000000000 DUP2 MSTORE PUSH1 0x4 ADD PUSH2 0x357 SWAP1 PUSH2 0x196B JUMP JUMPDEST PUSH1 0x40 MLOAD DUP1 SWAP2 SUB SWAP1 REVERT JUMPDEST PUSH1 0x0 PUSH1 0x40 MLOAD DUP1 PUSH1 0x40 ADD PUSH1 0x40 MSTORE DUP1 PUSH1 0x0 DUP2 MSTORE PUSH1 0x20 ADD PUSH1 0x0 DUP2 MSTORE POP SWAP1 POP PUSH1 0x0 JUMPDEST DUP7 MLOAD DUP2 LT ISZERO PUSH2 0x44F JUMPI DUP4 DUP8 DUP3 DUP2 MLOAD DUP2 LT PUSH2 0x39B JUMPI PUSH2 0x39A PUSH2 0x1811 JUMP JUMPDEST JUMPDEST PUSH1 0x20 MUL PUSH1 0x20 ADD ADD MLOAD LT PUSH2 0x3E3 JUMPI PUSH1 0x40 MLOAD PUSH32 0x8C379A000000000000000000000000000000000000000000000000000000000 DUP2 MSTORE PUSH1 0x4 ADD PUSH2 0x3DA SWAP1 PUSH2 0x19D7 JUMP JUMPDEST PUSH1 0x40 MLOAD DUP1 SWAP2 SUB SWAP1 REVERT JUMPDEST PUSH2 0x43A DUP3 PUSH2 0x435 DUP6 PUSH1 0x80 ADD MLOAD PUSH1 0x1 DUP6 PUSH2 0x3FC SWAP2 SWAP1 PUSH2 0x18B8 JUMP JUMPDEST DUP2 MLOAD DUP2 LT PUSH2 0x40D JUMPI PUSH2 0x40C PUSH2 0x1811 JUMP JUMPDEST JUMPDEST PUSH1 0x20 MUL PUSH1 0x20 ADD ADD MLOAD DUP11 DUP6 DUP2 MLOAD DUP2 LT PUSH2 0x428 JUMPI PUSH2 0x427 PUSH2 0x1811 JUMP JUMPDEST JUMPDEST PUSH1 0x20 MUL PUSH1 0x20 ADD ADD MLOAD PUSH2 0xB29 JUMP JUMPDEST PUSH2 0xC06 JUMP JUMPDEST SWAP2 POP DUP1 DUP1 PUSH2 0x447 SWAP1 PUSH2 0x186F JUMP JUMPDEST SWAP2 POP POP PUSH2 0x37E JUMP JUMPDEST POP PUSH2 0x479 DUP2 DUP4 PUSH1 0x80 ADD MLOAD PUSH1 0x0 DUP2 MLOAD DUP2 LT PUSH2 0x46C JUMPI PUSH2 0x46B PUSH2 0x1811 JUMP JUMPDEST JUMPDEST PUSH1 0x20 MUL PUSH1 0x20 ADD ADD MLOAD PUSH2 0xC06 JUMP JUMPDEST SWAP1 POP PUSH2 0x4AF PUSH2 0x48B DUP7 PUSH1 0x0 ADD MLOAD PUSH2 0xD09 JUMP JUMPDEST DUP7 PUSH1 0x20 ADD MLOAD DUP5 PUSH1 0x0 ADD MLOAD DUP6 PUSH1 0x20 ADD MLOAD DUP6 DUP8 PUSH1 0x40 ADD MLOAD DUP12 PUSH1 0x40 ADD MLOAD DUP10 PUSH1 0x60 ADD MLOAD PUSH2 0xDAE JUMP JUMPDEST PUSH2 0x4BF JUMPI PUSH1 0x1 SWAP4 POP POP POP POP PUSH2 0x4C7 JUMP JUMPDEST PUSH1 0x0 SWAP4 POP POP POP POP JUMPDEST SWAP3 SWAP2 POP POP JUMP JUMPDEST PUSH2 0x4D5 PUSH2 0x1375 JUMP JUMPDEST PUSH1 0x40 MLOAD DUP1 PUSH1 0x40 ADD PUSH1 0x40 MSTORE DUP1 PUSH32 0x2D4D9AA7E302D9DF41749D5507949D05DBEA33FBB16C643B22F599A2BE6DF2E2 DUP2 MSTORE PUSH1 0x20 ADD PUSH32 0x14BEDD503C37CEB061D8EC60209FE345CE89830A19230301F076CAFF004D1926 DUP2 MSTORE POP DUP2 PUSH1 0x0 ADD DUP2 SWAP1 MSTORE POP PUSH1 0x40 MLOAD DUP1 PUSH1 0x40 ADD PUSH1 0x40 MSTORE DUP1 PUSH1 0x40 MLOAD DUP1 PUSH1 0x40 ADD PUSH1 0x40 MSTORE DUP1 PUSH32 0x967032FCBF776D1AFC985F88877F182D38480A653F2DECAA9794CBC3BF3060C DUP2 MSTORE PUSH1 0x20 ADD PUSH32 0xE187847AD4C798374D0D6732BF501847DD68BC0E071241E0213BC7FC13DB7AB DUP2 MSTORE POP DUP2 MSTORE PUSH1 0x20 ADD PUSH1 0x40 MLOAD DUP1 PUSH1 0x40 ADD PUSH1 0x40 MSTORE DUP1 PUSH32 0x304CFBD1E08A704A99F5E847D93F8C3CAAFDDEC46B7A0D379DA69A4D112346A7 DUP2 MSTORE PUSH1 0x20 ADD PUSH32 0x1739C1B1A457A8C7313123D24D2F9192F896B7C63EEA05A9D57F06547AD0CEC8 DUP2 MSTORE POP DUP2 MSTORE POP DUP2 PUSH1 0x20 ADD DUP2 SWAP1 MSTORE POP PUSH1 0x40 MLOAD DUP1 PUSH1 0x40 ADD PUSH1 0x40 MSTORE DUP1 PUSH1 0x40 MLOAD DUP1 PUSH1 0x40 ADD PUSH1 0x40 MSTORE DUP1 PUSH32 0x198E9393920D483A7260BFB731FB5D25F1AA493335A9E71297E485B7AEF312C2 DUP2 MSTORE PUSH1 0x20 ADD PUSH32 0x1800DEEF121F1E76426A00665E5C4479674322D4F75EDADD46DEBD5CD992F6ED DUP2 MSTORE POP DUP2 MSTORE PUSH1 0x20 ADD PUSH1 0x40 MLOAD DUP1 PUSH1 0x40 ADD PUSH1 0x40 MSTORE DUP1 PUSH32 0x90689D0585FF075EC9E99AD690C3395BC4B313370B38EF355ACDADCD122975B DUP2 MSTORE PUSH1 0x20 ADD PUSH32 0x12C85EA5DB8C6DEB4AAB71808DCB408FE3D1E7690C43D37B4CE6CC0166FA7DAA DUP2 MSTORE POP DUP2 MSTORE POP DUP2 PUSH1 0x40 ADD DUP2 SWAP1 MSTORE POP PUSH1 0x40 MLOAD DUP1 PUSH1 0x40 ADD PUSH1 0x40 MSTORE DUP1 PUSH1 0x40 MLOAD DUP1 PUSH1 0x40 ADD PUSH1 0x40 MSTORE DUP1 PUSH32 0x198E9393920D483A7260BFB731FB5D25F1AA493335A9E71297E485B7AEF312C2 DUP2 MSTORE PUSH1 0x20 ADD PUSH32 0x1800DEEF121F1E76426A00665E5C4479674322D4F75EDADD46DEBD5CD992F6ED DUP2 MSTORE POP DUP2 MSTORE PUSH1 0x20 ADD PUSH1 0x40 MLOAD DUP1 PUSH1 0x40 ADD PUSH1 0x40 MSTORE DUP1 PUSH32 0x90689D0585FF075EC9E99AD690C3395BC4B313370B38EF355ACDADCD122975B DUP2 MSTORE PUSH1 0x20 ADD PUSH32 0x12C85EA5DB8C6DEB4AAB71808DCB408FE3D1E7690C43D37B4CE6CC0166FA7DAA DUP2 MSTORE POP DUP2 MSTORE POP DUP2 PUSH1 0x60 ADD DUP2 SWAP1 MSTORE POP PUSH1 0x7 PUSH8 0xFFFFFFFFFFFFFFFF DUP2 GT ISZERO PUSH2 0x79C JUMPI PUSH2 0x79B PUSH2 0x14A9 JUMP JUMPDEST JUMPDEST PUSH1 0x40 MLOAD SWAP1 DUP1 DUP3 MSTORE DUP1 PUSH1 0x20 MUL PUSH1 0x20 ADD DUP3 ADD PUSH1 0x40 MSTORE DUP1 ISZERO PUSH2 0x7D5 JUMPI DUP2 PUSH1 0x20 ADD JUMPDEST PUSH2 0x7C2 PUSH2 0x13BC JUMP JUMPDEST DUP2 MSTORE PUSH1 0x20 ADD SWAP1 PUSH1 0x1 SWAP1 SUB SWAP1 DUP2 PUSH2 0x7BA JUMPI SWAP1 POP JUMPDEST POP DUP2 PUSH1 0x80 ADD DUP2 SWAP1 MSTORE POP PUSH1 0x40 MLOAD DUP1 PUSH1 0x40 ADD PUSH1 0x40 MSTORE DUP1 PUSH32 0xC8FC092506AF9707CEAAB42106AF687EC4C9EAB2E88B8DF2DF0DB5962BCFA15 DUP2 MSTORE PUSH1 0x20 ADD PUSH32 0x17BF781E6F8FAECC295AC281EBD5550E12FB018EDF45FB09E13F184A5814BBD4 DUP2 MSTORE POP DUP2 PUSH1 0x80 ADD MLOAD PUSH1 0x0 DUP2 MLOAD DUP2 LT PUSH2 0x84B JUMPI PUSH2 0x84A PUSH2 0x1811 JUMP JUMPDEST JUMPDEST PUSH1 0x20 MUL PUSH1 0x20 ADD ADD DUP2 SWAP1 MSTORE POP PUSH1 0x40 MLOAD DUP1 PUSH1 0x40 ADD PUSH1 0x40 MSTORE DUP1 PUSH32 0x174377B24EA0B6ABC42408A6892EF31769D70DCE6ED76FD39691B1E909414F6F DUP2 MSTORE PUSH1 0x20 ADD PUSH32 0x152B5E322BF0780F97E5EFA80858080A0B291C12C62BBEEC4865639C5729BE56 DUP2 MSTORE POP DUP2 PUSH1 0x80 ADD MLOAD PUSH1 0x1 DUP2 MLOAD DUP2 LT PUSH2 0x8C3 JUMPI PUSH2 0x8C2 PUSH2 0x1811 JUMP JUMPDEST JUMPDEST PUSH1 0x20 MUL PUSH1 0x20 ADD ADD DUP2 SWAP1 MSTORE POP PUSH1 0x40 MLOAD DUP1 PUSH1 0x40 ADD PUSH1 0x40 MSTORE DUP1 PUSH32 0x1CA14260051A469F21655C6FD0370876CDDACC9619404F530A6830C91B1B6AFE DUP2 MSTORE PUSH1 0x20 ADD PUSH32 0x1342A2C0FFA6C21AB0BDB58A7B2E0AABF457521FF4C0223089A94DEBA34AADBD DUP2 MSTORE POP DUP2 PUSH1 0x80 ADD MLOAD PUSH1 0x2 DUP2 MLOAD DUP2 LT PUSH2 0x93B JUMPI PUSH2 0x93A PUSH2 0x1811 JUMP JUMPDEST JUMPDEST PUSH1 0x20 MUL PUSH1 0x20 ADD ADD DUP2 SWAP1 MSTORE POP PUSH1 0x40 MLOAD DUP1 PUSH1 0x40 ADD PUSH1 0x40 MSTORE DUP1 PUSH32 0x9BBABE5293638C19D466C94D9B9F570E1FB4F8C3AEC949C7772AD9392A9BEB2 DUP2 MSTORE PUSH1 0x20 ADD PUSH32 0x1BB6B431A384B97DBA67631C74B2969A31170AC85F56C661CD5E1FDCFCC4E3C9 DUP2 MSTORE POP DUP2 PUSH1 0x80 ADD MLOAD PUSH1 0x3 DUP2 MLOAD DUP2 LT PUSH2 0x9B3 JUMPI PUSH2 0x9B2 PUSH2 0x1811 JUMP JUMPDEST JUMPDEST PUSH1 0x20 MUL PUSH1 0x20 ADD ADD DUP2 SWAP1 MSTORE POP PUSH1 0x40 MLOAD DUP1 PUSH1 0x40 ADD PUSH1 0x40 MSTORE DUP1 PUSH32 0x3008304E9FA8ECA41DD09222B75EB457838BA5500FFF9B8B6B7B7FCFFFB1A70E DUP2 MSTORE PUSH1 0x20 ADD PUSH32 0x2B0A58BB496AFC8E40FE703028EA94E76CC2B5351A5405B78BFF5CE4A9BBD1AE DUP2 MSTORE POP DUP2 PUSH1 0x80 ADD MLOAD PUSH1 0x4 DUP2 MLOAD DUP2 LT PUSH2 0xA2B JUMPI PUSH2 0xA2A PUSH2 0x1811 JUMP JUMPDEST JUMPDEST PUSH1 0x20 MUL PUSH1 0x20 ADD ADD DUP2 SWAP1 MSTORE POP PUSH1 0x40 MLOAD DUP1 PUSH1 0x40 ADD PUSH1 0x40 MSTORE DUP1 PUSH32 0x5482EB99644BC77325EF578D710055268EDADFB863FFDAF0787436A79F0760A DUP2 MSTORE PUSH1 0x20 ADD PUSH32 0x7E203B245FA9C3E1463C6E370C8AE5F81BF9C1D7342A595EBB5325AB9081AD5 DUP2 MSTORE POP DUP2 PUSH1 0x80 ADD MLOAD PUSH1 0x5 DUP2 MLOAD DUP2 LT PUSH2 0xAA3 JUMPI PUSH2 0xAA2 PUSH2 0x1811 JUMP JUMPDEST JUMPDEST PUSH1 0x20 MUL PUSH1 0x20 ADD ADD DUP2 SWAP1 MSTORE POP PUSH1 0x40 MLOAD DUP1 PUSH1 0x40 ADD PUSH1 0x40 MSTORE DUP1 PUSH32 0x320A6A99699811E25A2E1730843D9E32985680B54EB4F18B020DDB8A7C08DFD DUP2 MSTORE PUSH1 0x20 ADD PUSH32 0x12AC8DD307148371B94E1AF57B73C713EEB4AE71FF8D24BAD1122B3A1704FD66 DUP2 MSTORE POP DUP2 PUSH1 0x80 ADD MLOAD PUSH1 0x6 DUP2 MLOAD DUP2 LT PUSH2 0xB1B JUMPI PUSH2 0xB1A PUSH2 0x1811 JUMP JUMPDEST JUMPDEST PUSH1 0x20 MUL PUSH1 0x20 ADD ADD DUP2 SWAP1 MSTORE POP SWAP1 JUMP JUMPDEST PUSH2 0xB31 PUSH2 0x13BC JUMP JUMPDEST PUSH2 0xB39 PUSH2 0x13D6 JUMP JUMPDEST DUP4 PUSH1 0x0 ADD MLOAD DUP2 PUSH1 0x0 PUSH1 0x3 DUP2 LT PUSH2 0xB52 JUMPI PUSH2 0xB51 PUSH2 0x1811 JUMP JUMPDEST JUMPDEST PUSH1 0x20 MUL ADD DUP2 DUP2 MSTORE POP POP DUP4 PUSH1 0x20 ADD MLOAD DUP2 PUSH1 0x1 PUSH1 0x3 DUP2 LT PUSH2 0xB74 JUMPI PUSH2 0xB73 PUSH2 0x1811 JUMP JUMPDEST JUMPDEST PUSH1 0x20 MUL ADD DUP2 DUP2 MSTORE POP POP DUP3 DUP2 PUSH1 0x2 PUSH1 0x3 DUP2 LT PUSH2 0xB92 JUMPI PUSH2 0xB91 PUSH2 0x1811 JUMP JUMPDEST JUMPDEST PUSH1 0x20 MUL ADD DUP2 DUP2 MSTORE POP POP PUSH1 0x0 PUSH1 0x60 DUP4 PUSH1 0x80 DUP5 PUSH1 0x7 PUSH2 0x7D0 GAS SUB STATICCALL SWAP1 POP DUP1 PUSH1 0x0 DUP2 EQ PUSH2 0xBBB JUMPI PUSH2 0xBBD JUMP JUMPDEST INVALID JUMPDEST POP DUP1 PUSH2 0xBFE JUMPI PUSH1 0x40 MLOAD PUSH32 0x8C379A000000000000000000000000000000000000000000000000000000000 DUP2 MSTORE PUSH1 0x4 ADD PUSH2 0xBF5 SWAP1 PUSH2 0x1A43 JUMP JUMPDEST PUSH1 0x40 MLOAD DUP1 SWAP2 SUB SWAP1 REVERT JUMPDEST POP POP SWAP3 SWAP2 POP POP JUMP JUMPDEST PUSH2 0xC0E PUSH2 0x13BC JUMP JUMPDEST PUSH2 0xC16 PUSH2 0x13F8 JUMP JUMPDEST DUP4 PUSH1 0x0 ADD MLOAD DUP2 PUSH1 0x0 PUSH1 0x4 DUP2 LT PUSH2 0xC2F JUMPI PUSH2 0xC2E PUSH2 0x1811 JUMP JUMPDEST JUMPDEST PUSH1 0x20 MUL ADD DUP2 DUP2 MSTORE POP POP DUP4 PUSH1 0x20 ADD MLOAD DUP2 PUSH1 0x1 PUSH1 0x4 DUP2 LT PUSH2 0xC51 JUMPI PUSH2 0xC50 PUSH2 0x1811 JUMP JUMPDEST JUMPDEST PUSH1 0x20 MUL ADD DUP2 DUP2 MSTORE POP POP DUP3 PUSH1 0x0 ADD MLOAD DUP2 PUSH1 0x2 PUSH1 0x4 DUP2 LT PUSH2 0xC73 JUMPI PUSH2 0xC72 PUSH2 0x1811 JUMP JUMPDEST JUMPDEST PUSH1 0x20 MUL ADD DUP2 DUP2 MSTORE POP POP DUP3 PUSH1 0x20 ADD MLOAD DUP2 PUSH1 0x3 PUSH1 0x4 DUP2 LT PUSH2 0xC95 JUMPI PUSH2 0xC94 PUSH2 0x1811 JUMP JUMPDEST JUMPDEST PUSH1 0x20 MUL ADD DUP2 DUP2 MSTORE POP POP PUSH1 0x0 PUSH1 0x60 DUP4 PUSH1 0xC0 DUP5 PUSH1 0x6 PUSH2 0x7D0 GAS SUB STATICCALL SWAP1 POP DUP1 PUSH1 0x0 DUP2 EQ PUSH2 0xCBE JUMPI PUSH2 0xCC0 JUMP JUMPDEST INVALID JUMPDEST POP DUP1 PUSH2 0xD01 JUMPI PUSH1 0x40 MLOAD PUSH32 0x8C379A000000000000000000000000000000000000000000000000000000000 DUP2 MSTORE PUSH1 0x4 ADD PUSH2 0xCF8 SWAP1 PUSH2 0x1AAF JUMP JUMPDEST PUSH1 0x40 MLOAD DUP1 SWAP2 SUB SWAP1 REVERT JUMPDEST POP POP SWAP3 SWAP2 POP POP JUMP JUMPDEST PUSH2 0xD11 PUSH2 0x13BC JUMP JUMPDEST PUSH1 0x0 PUSH32 0x30644E72E131A029B85045B68181585D97816A916871CA8D3C208C16D87CFD47 SWAP1 POP PUSH1 0x0 DUP4 PUSH1 0x0 ADD MLOAD EQ DUP1 ISZERO PUSH2 0xD4E JUMPI POP PUSH1 0x0 DUP4 PUSH1 0x20 ADD MLOAD EQ JUMPDEST ISZERO PUSH2 0xD72 JUMPI PUSH1 0x40 MLOAD DUP1 PUSH1 0x40 ADD PUSH1 0x40 MSTORE DUP1 PUSH1 0x0 DUP2 MSTORE PUSH1 0x20 ADD PUSH1 0x0 DUP2 MSTORE POP SWAP2 POP POP PUSH2 0xDA9 JUMP JUMPDEST PUSH1 0x40 MLOAD DUP1 PUSH1 0x40 ADD PUSH1 0x40 MSTORE DUP1 DUP5 PUSH1 0x0 ADD MLOAD DUP2 MSTORE PUSH1 0x20 ADD DUP3 DUP6 PUSH1 0x20 ADD MLOAD PUSH2 0xD97 SWAP2 SWAP1 PUSH2 0x1AFE JUMP JUMPDEST DUP4 PUSH2 0xDA2 SWAP2 SWAP1 PUSH2 0x1B2F JUMP JUMPDEST DUP2 MSTORE POP SWAP2 POP POP JUMPDEST SWAP2 SWAP1 POP JUMP JUMPDEST PUSH1 0x0 DUP1 PUSH1 0x4 PUSH8 0xFFFFFFFFFFFFFFFF DUP2 GT ISZERO PUSH2 0xDCC JUMPI PUSH2 0xDCB PUSH2 0x14A9 JUMP JUMPDEST JUMPDEST PUSH1 0x40 MLOAD SWAP1 DUP1 DUP3 MSTORE DUP1 PUSH1 0x20 MUL PUSH1 0x20 ADD DUP3 ADD PUSH1 0x40 MSTORE DUP1 ISZERO PUSH2 0xE05 JUMPI DUP2 PUSH1 0x20 ADD JUMPDEST PUSH2 0xDF2 PUSH2 0x13BC JUMP JUMPDEST DUP2 MSTORE PUSH1 0x20 ADD SWAP1 PUSH1 0x1 SWAP1 SUB SWAP1 DUP2 PUSH2 0xDEA JUMPI SWAP1 POP JUMPDEST POP SWAP1 POP PUSH1 0x0 PUSH1 0x4 PUSH8 0xFFFFFFFFFFFFFFFF DUP2 GT ISZERO PUSH2 0xE25 JUMPI PUSH2 0xE24 PUSH2 0x14A9 JUMP JUMPDEST JUMPDEST PUSH1 0x40 MLOAD SWAP1 DUP1 DUP3 MSTORE DUP1 PUSH1 0x20 MUL PUSH1 0x20 ADD DUP3 ADD PUSH1 0x40 MSTORE DUP1 ISZERO PUSH2 0xE5E JUMPI DUP2 PUSH1 0x20 ADD JUMPDEST PUSH2 0xE4B PUSH2 0x141A JUMP JUMPDEST DUP2 MSTORE PUSH1 0x20 ADD SWAP1 PUSH1 0x1 SWAP1 SUB SWAP1 DUP2 PUSH2 0xE43 JUMPI SWAP1 POP JUMPDEST POP SWAP1 POP DUP11 DUP3 PUSH1 0x0 DUP2 MLOAD DUP2 LT PUSH2 0xE76 JUMPI PUSH2 0xE75 PUSH2 0x1811 JUMP JUMPDEST JUMPDEST PUSH1 0x20 MUL PUSH1 0x20 ADD ADD DUP2 SWAP1 MSTORE POP DUP9 DUP3 PUSH1 0x1 DUP2 MLOAD DUP2 LT PUSH2 0xE96 JUMPI PUSH2 0xE95 PUSH2 0x1811 JUMP JUMPDEST JUMPDEST PUSH1 0x20 MUL PUSH1 0x20 ADD ADD DUP2 SWAP1 MSTORE POP DUP7 DUP3 PUSH1 0x2 DUP2 MLOAD DUP2 LT PUSH2 0xEB6 JUMPI PUSH2 0xEB5 PUSH2 0x1811 JUMP JUMPDEST JUMPDEST PUSH1 0x20 MUL PUSH1 0x20 ADD ADD DUP2 SWAP1 MSTORE POP DUP5 DUP3 PUSH1 0x3 DUP2 MLOAD DUP2 LT PUSH2 0xED6 JUMPI PUSH2 0xED5 PUSH2 0x1811 JUMP JUMPDEST JUMPDEST PUSH1 0x20 MUL PUSH1 0x20 ADD ADD DUP2 SWAP1 MSTORE POP DUP10 DUP2 PUSH1 0x0 DUP2 MLOAD DUP2 LT PUSH2 0xEF6 JUMPI PUSH2 0xEF5 PUSH2 0x1811 JUMP JUMPDEST JUMPDEST PUSH1 0x20 MUL PUSH1 0x20 ADD ADD DUP2 SWAP1 MSTORE POP DUP8 DUP2 PUSH1 0x1 DUP2 MLOAD DUP2 LT PUSH2 0xF16 JUMPI PUSH2 0xF15 PUSH2 0x1811 JUMP JUMPDEST JUMPDEST PUSH1 0x20 MUL PUSH1 0x20 ADD ADD DUP2 SWAP1 MSTORE POP DUP6 DUP2 PUSH1 0x2 DUP2 MLOAD DUP2 LT PUSH2 0xF36 JUMPI PUSH2 0xF35 PUSH2 0x1811 JUMP JUMPDEST JUMPDEST PUSH1 0x20 MUL PUSH1 0x20 ADD ADD DUP2 SWAP1 MSTORE POP DUP4 DUP2 PUSH1 0x3 DUP2 MLOAD DUP2 LT PUSH2 0xF56 JUMPI PUSH2 0xF55 PUSH2 0x1811 JUMP JUMPDEST JUMPDEST PUSH1 0x20 MUL PUSH1 0x20 ADD ADD DUP2 SWAP1 MSTORE POP PUSH2 0xF6B DUP3 DUP3 PUSH2 0xF7B JUMP JUMPDEST SWAP3 POP POP POP SWAP9 SWAP8 POP POP POP POP POP POP POP POP JUMP JUMPDEST PUSH1 0x0 DUP2 MLOAD DUP4 MLOAD EQ PUSH2 0xFC1 JUMPI PUSH1 0x40 MLOAD PUSH32 0x8C379A000000000000000000000000000000000000000000000000000000000 DUP2 MSTORE PUSH1 0x4 ADD PUSH2 0xFB8 SWAP1 PUSH2 0x1BAF JUMP JUMPDEST PUSH1 0x40 MLOAD DUP1 SWAP2 SUB SWAP1 REVERT JUMPDEST PUSH1 0x0 DUP4 MLOAD SWAP1 POP PUSH1 0x0 PUSH1 0x6 DUP3 PUSH2 0xFD6 SWAP2 SWAP1 PUSH2 0x1BCF JUMP JUMPDEST SWAP1 POP PUSH1 0x0 DUP2 PUSH8 0xFFFFFFFFFFFFFFFF DUP2 GT ISZERO PUSH2 0xFF4 JUMPI PUSH2 0xFF3 PUSH2 0x14A9 JUMP JUMPDEST JUMPDEST PUSH1 0x40 MLOAD SWAP1 DUP1 DUP3 MSTORE DUP1 PUSH1 0x20 MUL PUSH1 0x20 ADD DUP3 ADD PUSH1 0x40 MSTORE DUP1 ISZERO PUSH2 0x1022 JUMPI DUP2 PUSH1 0x20 ADD PUSH1 0x20 DUP3 MUL DUP1 CALLDATASIZE DUP4 CALLDATACOPY DUP1 DUP3 ADD SWAP2 POP POP SWAP1 POP JUMPDEST POP SWAP1 POP PUSH1 0x0 JUMPDEST DUP4 DUP2 LT ISZERO PUSH2 0x12A7 JUMPI DUP7 DUP2 DUP2 MLOAD DUP2 LT PUSH2 0x1043 JUMPI PUSH2 0x1042 PUSH2 0x1811 JUMP JUMPDEST JUMPDEST PUSH1 0x20 MUL PUSH1 0x20 ADD ADD MLOAD PUSH1 0x0 ADD MLOAD DUP3 PUSH1 0x0 PUSH1 0x6 DUP5 PUSH2 0x105F SWAP2 SWAP1 PUSH2 0x1BCF JUMP JUMPDEST PUSH2 0x1069 SWAP2 SWAP1 PUSH2 0x18B8 JUMP JUMPDEST DUP2 MLOAD DUP2 LT PUSH2 0x107A JUMPI PUSH2 0x1079 PUSH2 0x1811 JUMP JUMPDEST JUMPDEST PUSH1 0x20 MUL PUSH1 0x20 ADD ADD DUP2 DUP2 MSTORE POP POP DUP7 DUP2 DUP2 MLOAD DUP2 LT PUSH2 0x1099 JUMPI PUSH2 0x1098 PUSH2 0x1811 JUMP JUMPDEST JUMPDEST PUSH1 0x20 MUL PUSH1 0x20 ADD ADD MLOAD PUSH1 0x20 ADD MLOAD DUP3 PUSH1 0x1 PUSH1 0x6 DUP5 PUSH2 0x10B5 SWAP2 SWAP1 PUSH2 0x1BCF JUMP JUMPDEST PUSH2 0x10BF SWAP2 SWAP1 PUSH2 0x18B8 JUMP JUMPDEST DUP2 MLOAD DUP2 LT PUSH2 0x10D0 JUMPI PUSH2 0x10CF PUSH2 0x1811 JUMP JUMPDEST JUMPDEST PUSH1 0x20 MUL PUSH1 0x20 ADD ADD DUP2 DUP2 MSTORE POP POP DUP6 DUP2 DUP2 MLOAD DUP2 LT PUSH2 0x10EF JUMPI PUSH2 0x10EE PUSH2 0x1811 JUMP JUMPDEST JUMPDEST PUSH1 0x20 MUL PUSH1 0x20 ADD ADD MLOAD PUSH1 0x0 ADD MLOAD PUSH1 0x0 PUSH1 0x2 DUP2 LT PUSH2 0x110E JUMPI PUSH2 0x110D PUSH2 0x1811 JUMP JUMPDEST JUMPDEST PUSH1 0x20 MUL ADD MLOAD DUP3 PUSH1 0x2 PUSH1 0x6 DUP5 PUSH2 0x1123 SWAP2 SWAP1 PUSH2 0x1BCF JUMP JUMPDEST PUSH2 0x112D SWAP2 SWAP1 PUSH2 0x18B8 JUMP JUMPDEST DUP2 MLOAD DUP2 LT PUSH2 0x113E JUMPI PUSH2 0x113D PUSH2 0x1811 JUMP JUMPDEST JUMPDEST PUSH1 0x20 MUL PUSH1 0x20 ADD ADD DUP2 DUP2 MSTORE POP POP DUP6 DUP2 DUP2 MLOAD DUP2 LT PUSH2 0x115D JUMPI PUSH2 0x115C PUSH2 0x1811 JUMP JUMPDEST JUMPDEST PUSH1 0x20 MUL PUSH1 0x20 ADD ADD MLOAD PUSH1 0x0 ADD MLOAD PUSH1 0x1 PUSH1 0x2 DUP2 LT PUSH2 0x117C JUMPI PUSH2 0x117B PUSH2 0x1811 JUMP JUMPDEST JUMPDEST PUSH1 0x20 MUL ADD MLOAD DUP3 PUSH1 0x3 PUSH1 0x6 DUP5 PUSH2 0x1191 SWAP2 SWAP1 PUSH2 0x1BCF JUMP JUMPDEST PUSH2 0x119B SWAP2 SWAP1 PUSH2 0x18B8 JUMP JUMPDEST DUP2 MLOAD DUP2 LT PUSH2 0x11AC JUMPI PUSH2 0x11AB PUSH2 0x1811 JUMP JUMPDEST JUMPDEST PUSH1 0x20 MUL PUSH1 0x20 ADD ADD DUP2 DUP2 MSTORE POP POP DUP6 DUP2 DUP2 MLOAD DUP2 LT PUSH2 0x11CB JUMPI PUSH2 0x11CA PUSH2 0x1811 JUMP JUMPDEST JUMPDEST PUSH1 0x20 MUL PUSH1 0x20 ADD ADD MLOAD PUSH1 0x20 ADD MLOAD PUSH1 0x0 PUSH1 0x2 DUP2 LT PUSH2 0x11EA JUMPI PUSH2 0x11E9 PUSH2 0x1811 JUMP JUMPDEST JUMPDEST PUSH1 0x20 MUL ADD MLOAD DUP3 PUSH1 0x4 PUSH1 0x6 DUP5 PUSH2 0x11FF SWAP2 SWAP1 PUSH2 0x1BCF JUMP JUMPDEST PUSH2 0x1209 SWAP2 SWAP1 PUSH2 0x18B8 JUMP JUMPDEST DUP2 MLOAD DUP2 LT PUSH2 0x121A JUMPI PUSH2 0x1219 PUSH2 0x1811 JUMP JUMPDEST JUMPDEST PUSH1 0x20 MUL PUSH1 0x20 ADD ADD DUP2 DUP2 MSTORE POP POP DUP6 DUP2 DUP2 MLOAD DUP2 LT PUSH2 0x1239 JUMPI PUSH2 0x1238 PUSH2 0x1811 JUMP JUMPDEST JUMPDEST PUSH1 0x20 MUL PUSH1 0x20 ADD ADD MLOAD PUSH1 0x20 ADD MLOAD PUSH1 0x1 PUSH1 0x2 DUP2 LT PUSH2 0x1258 JUMPI PUSH2 0x1257 PUSH2 0x1811 JUMP JUMPDEST JUMPDEST PUSH1 0x20 MUL ADD MLOAD DUP3 PUSH1 0x5 PUSH1 0x6 DUP5 PUSH2 0x126D SWAP2 SWAP1 PUSH2 0x1BCF JUMP JUMPDEST PUSH2 0x1277 SWAP2 SWAP1 PUSH2 0x18B8 JUMP JUMPDEST DUP2 MLOAD DUP2 LT PUSH2 0x1288 JUMPI PUSH2 0x1287 PUSH2 0x1811 JUMP JUMPDEST JUMPDEST PUSH1 0x20 MUL PUSH1 0x20 ADD ADD DUP2 DUP2 MSTORE POP POP DUP1 DUP1 PUSH2 0x129F SWAP1 PUSH2 0x186F JUMP JUMPDEST SWAP2 POP POP PUSH2 0x1028 JUMP JUMPDEST POP PUSH2 0x12B0 PUSH2 0x1440 JUMP JUMPDEST PUSH1 0x0 PUSH1 0x20 DUP3 PUSH1 0x20 DUP7 MUL PUSH1 0x20 DUP7 ADD PUSH1 0x8 PUSH2 0x7D0 GAS SUB STATICCALL SWAP1 POP DUP1 PUSH1 0x0 DUP2 EQ PUSH2 0x12D5 JUMPI PUSH2 0x12D7 JUMP JUMPDEST INVALID JUMPDEST POP DUP1 PUSH2 0x1318 JUMPI PUSH1 0x40 MLOAD PUSH32 0x8C379A000000000000000000000000000000000000000000000000000000000 DUP2 MSTORE PUSH1 0x4 ADD PUSH2 0x130F SWAP1 PUSH2 0x1C75 JUMP JUMPDEST PUSH1 0x40 MLOAD DUP1 SWAP2 SUB SWAP1 REVERT JUMPDEST PUSH1 0x0 DUP3 PUSH1 0x0 PUSH1 0x1 DUP2 LT PUSH2 0x132E JUMPI PUSH2 0x132D PUSH2 0x1811 JUMP JUMPDEST JUMPDEST PUSH1 0x20 MUL ADD MLOAD EQ ISZERO SWAP6 POP POP POP POP POP POP SWAP3 SWAP2 POP POP JUMP JUMPDEST PUSH1 0x40 MLOAD DUP1 PUSH1 0x60 ADD PUSH1 0x40 MSTORE DUP1 PUSH2 0x1355 PUSH2 0x13BC JUMP JUMPDEST DUP2 MSTORE PUSH1 0x20 ADD PUSH2 0x1362 PUSH2 0x141A JUMP JUMPDEST DUP2 MSTORE PUSH1 0x20 ADD PUSH2 0x136F PUSH2 0x13BC JUMP JUMPDEST DUP2 MSTORE POP SWAP1 JUMP JUMPDEST PUSH1 0x40 MLOAD DUP1 PUSH1 0xA0 ADD PUSH1 0x40 MSTORE DUP1 PUSH2 0x1388 PUSH2 0x13BC JUMP JUMPDEST DUP2 MSTORE PUSH1 0x20 ADD PUSH2 0x1395 PUSH2 0x141A JUMP JUMPDEST DUP2 MSTORE PUSH1 0x20 ADD PUSH2 0x13A2 PUSH2 0x141A JUMP JUMPDEST DUP2 MSTORE PUSH1 0x20 ADD PUSH2 0x13AF PUSH2 0x141A JUMP JUMPDEST DUP2 MSTORE PUSH1 0x20 ADD PUSH1 0x60 DUP2 MSTORE POP SWAP1 JUMP JUMPDEST PUSH1 0x40 MLOAD DUP1 PUSH1 0x40 ADD PUSH1 0x40 MSTORE DUP1 PUSH1 0x0 DUP2 MSTORE PUSH1 0x20 ADD PUSH1 0x0 DUP2 MSTORE POP SWAP1 JUMP JUMPDEST PUSH1 0x40 MLOAD DUP1 PUSH1 0x60 ADD PUSH1 0x40 MSTORE DUP1 PUSH1 0x3 SWAP1 PUSH1 0x20 DUP3 MUL DUP1 CALLDATASIZE DUP4 CALLDATACOPY DUP1 DUP3 ADD SWAP2 POP POP SWAP1 POP POP SWAP1 JUMP JUMPDEST PUSH1 0x40 MLOAD DUP1 PUSH1 0x80 ADD PUSH1 0x40 MSTORE DUP1 PUSH1 0x4 SWAP1 PUSH1 0x20 DUP3 MUL DUP1 CALLDATASIZE DUP4 CALLDATACOPY DUP1 DUP3 ADD SWAP2 POP POP SWAP1 POP POP SWAP1 JUMP JUMPDEST PUSH1 0x40 MLOAD DUP1 PUSH1 0x40 ADD PUSH1 0x40 MSTORE DUP1 PUSH2 0x142D PUSH2 0x1462 JUMP JUMPDEST DUP2 MSTORE PUSH1 0x20 ADD PUSH2 0x143A PUSH2 0x1462 JUMP JUMPDEST DUP2 MSTORE POP SWAP1 JUMP JUMPDEST PUSH1 0x40 MLOAD DUP1 PUSH1 0x20 ADD PUSH1 0x40 MSTORE DUP1 PUSH1 0x1 SWAP1 PUSH1 0x20 DUP3 MUL DUP1 CALLDATASIZE DUP4 CALLDATACOPY DUP1 DUP3 ADD SWAP2 POP POP SWAP1 POP POP SWAP1 JUMP JUMPDEST PUSH1 0x40 MLOAD DUP1 PUSH1 0x40 ADD PUSH1 0x40 MSTORE DUP1 PUSH1 0x2 SWAP1 PUSH1 0x20 DUP3 MUL DUP1 CALLDATASIZE DUP4 CALLDATACOPY DUP1 DUP3 ADD SWAP2 POP POP SWAP1 POP POP SWAP1 JUMP JUMPDEST PUSH1 0x0 PUSH1 0x40 MLOAD SWAP1 POP SWAP1 JUMP JUMPDEST PUSH1 0x0 DUP1 REVERT JUMPDEST PUSH1 0x0 DUP1 REVERT JUMPDEST PUSH1 0x0 PUSH1 0x1F NOT PUSH1 0x1F DUP4 ADD AND SWAP1 POP SWAP2 SWAP1 POP JUMP JUMPDEST PUSH32 0x4E487B7100000000000000000000000000000000000000000000000000000000 PUSH1 0x0 MSTORE PUSH1 0x41 PUSH1 0x4 MSTORE PUSH1 0x24 PUSH1 0x0 REVERT JUMPDEST PUSH2 0x14E1 DUP3 PUSH2 0x1498 JUMP JUMPDEST DUP2 ADD DUP2 DUP2 LT PUSH8 0xFFFFFFFFFFFFFFFF DUP3 GT OR ISZERO PUSH2 0x1500 JUMPI PUSH2 0x14FF PUSH2 0x14A9 JUMP JUMPDEST JUMPDEST DUP1 PUSH1 0x40 MSTORE POP POP POP JUMP JUMPDEST PUSH1 0x0 PUSH2 0x1513 PUSH2 0x1484 JUMP JUMPDEST SWAP1 POP PUSH2 0x151F DUP3 DUP3 PUSH2 0x14D8 JUMP JUMPDEST SWAP2 SWAP1 POP JUMP JUMPDEST PUSH1 0x0 PUSH8 0xFFFFFFFFFFFFFFFF DUP3 GT ISZERO PUSH2 0x153F JUMPI PUSH2 0x153E PUSH2 0x14A9 JUMP JUMPDEST JUMPDEST PUSH1 0x20 DUP3 MUL SWAP1 POP SWAP2 SWAP1 POP JUMP JUMPDEST PUSH1 0x0 DUP1 REVERT JUMPDEST PUSH1 0x0 DUP2 SWAP1 POP SWAP2 SWAP1 POP JUMP JUMPDEST PUSH2 0x1562 DUP2 PUSH2 0x154F JUMP JUMPDEST DUP2 EQ PUSH2 0x156D JUMPI PUSH1 0x0 DUP1 REVERT JUMPDEST POP JUMP JUMPDEST PUSH1 0x0 DUP2 CALLDATALOAD SWAP1 POP PUSH2 0x157F DUP2 PUSH2 0x1559 JUMP JUMPDEST SWAP3 SWAP2 POP POP JUMP JUMPDEST PUSH1 0x0 PUSH2 0x1598 PUSH2 0x1593 DUP5 PUSH2 0x1524 JUMP JUMPDEST PUSH2 0x1509 JUMP JUMPDEST SWAP1 POP DUP1 PUSH1 0x20 DUP5 MUL DUP4 ADD DUP6 DUP2 GT ISZERO PUSH2 0x15B2 JUMPI PUSH2 0x15B1 PUSH2 0x154A JUMP JUMPDEST JUMPDEST DUP4 JUMPDEST DUP2 DUP2 LT ISZERO PUSH2 0x15DB JUMPI DUP1 PUSH2 0x15C7 DUP9 DUP3 PUSH2 0x1570 JUMP JUMPDEST DUP5 MSTORE PUSH1 0x20 DUP5 ADD SWAP4 POP POP PUSH1 0x20 DUP2 ADD SWAP1 POP PUSH2 0x15B4 JUMP JUMPDEST POP POP POP SWAP4 SWAP3 POP POP POP JUMP JUMPDEST PUSH1 0x0 DUP3 PUSH1 0x1F DUP4 ADD SLT PUSH2 0x15FA JUMPI PUSH2 0x15F9 PUSH2 0x1493 JUMP JUMPDEST JUMPDEST PUSH1 0x2 PUSH2 0x1607 DUP5 DUP3 DUP6 PUSH2 0x1585 JUMP JUMPDEST SWAP2 POP POP SWAP3 SWAP2 POP POP JUMP JUMPDEST PUSH1 0x0 PUSH8 0xFFFFFFFFFFFFFFFF DUP3 GT ISZERO PUSH2 0x162B JUMPI PUSH2 0x162A PUSH2 0x14A9 JUMP JUMPDEST JUMPDEST PUSH1 0x20 DUP3 MUL SWAP1 POP SWAP2 SWAP1 POP JUMP JUMPDEST PUSH1 0x0 PUSH2 0x1649 PUSH2 0x1644 DUP5 PUSH2 0x1610 JUMP JUMPDEST PUSH2 0x1509 JUMP JUMPDEST SWAP1 POP DUP1 PUSH1 0x40 DUP5 MUL DUP4 ADD DUP6 DUP2 GT ISZERO PUSH2 0x1663 JUMPI PUSH2 0x1662 PUSH2 0x154A JUMP JUMPDEST JUMPDEST DUP4 JUMPDEST DUP2 DUP2 LT ISZERO PUSH2 0x168C JUMPI DUP1 PUSH2 0x1678 DUP9 DUP3 PUSH2 0x15E5 JUMP JUMPDEST DUP5 MSTORE PUSH1 0x20 DUP5 ADD SWAP4 POP POP PUSH1 0x40 DUP2 ADD SWAP1 POP PUSH2 0x1665 JUMP JUMPDEST POP POP POP SWAP4 SWAP3 POP POP POP JUMP JUMPDEST PUSH1 0x0 DUP3 PUSH1 0x1F DUP4 ADD SLT PUSH2 0x16AB JUMPI PUSH2 0x16AA PUSH2 0x1493 JUMP JUMPDEST JUMPDEST PUSH1 0x2 PUSH2 0x16B8 DUP5 DUP3 DUP6 PUSH2 0x1636 JUMP JUMPDEST SWAP2 POP POP SWAP3 SWAP2 POP POP JUMP JUMPDEST PUSH1 0x0 PUSH8 0xFFFFFFFFFFFFFFFF DUP3 GT ISZERO PUSH2 0x16DC JUMPI PUSH2 0x16DB PUSH2 0x14A9 JUMP JUMPDEST JUMPDEST PUSH1 0x20 DUP3 MUL SWAP1 POP SWAP2 SWAP1 POP JUMP JUMPDEST PUSH1 0x0 PUSH2 0x16FA PUSH2 0x16F5 DUP5 PUSH2 0x16C1 JUMP JUMPDEST PUSH2 0x1509 JUMP JUMPDEST SWAP1 POP DUP1 PUSH1 0x20 DUP5 MUL DUP4 ADD DUP6 DUP2 GT ISZERO PUSH2 0x1714 JUMPI PUSH2 0x1713 PUSH2 0x154A JUMP JUMPDEST JUMPDEST DUP4 JUMPDEST DUP2 DUP2 LT ISZERO PUSH2 0x173D JUMPI DUP1 PUSH2 0x1729 DUP9 DUP3 PUSH2 0x1570 JUMP JUMPDEST DUP5 MSTORE PUSH1 0x20 DUP5 ADD SWAP4 POP POP PUSH1 0x20 DUP2 ADD SWAP1 POP PUSH2 0x1716 JUMP JUMPDEST POP POP POP SWAP4 SWAP3 POP POP POP JUMP JUMPDEST PUSH1 0x0 DUP3 PUSH1 0x1F DUP4 ADD SLT PUSH2 0x175C JUMPI PUSH2 0x175B PUSH2 0x1493 JUMP JUMPDEST JUMPDEST PUSH1 0x6 PUSH2 0x1769 DUP5 DUP3 DUP6 PUSH2 0x16E7 JUMP JUMPDEST SWAP2 POP POP SWAP3 SWAP2 POP POP JUMP JUMPDEST PUSH1 0x0 DUP1 PUSH1 0x0 DUP1 PUSH2 0x1C0 DUP6 DUP8 SUB SLT ISZERO PUSH2 0x178D JUMPI PUSH2 0x178C PUSH2 0x148E JUMP JUMPDEST JUMPDEST PUSH1 0x0 PUSH2 0x179B DUP8 DUP3 DUP9 ADD PUSH2 0x15E5 JUMP JUMPDEST SWAP5 POP POP PUSH1 0x40 PUSH2 0x17AC DUP8 DUP3 DUP9 ADD PUSH2 0x1696 JUMP JUMPDEST SWAP4 POP POP PUSH1 0xC0 PUSH2 0x17BD DUP8 DUP3 DUP9 ADD PUSH2 0x15E5 JUMP JUMPDEST SWAP3 POP POP PUSH2 0x100 PUSH2 0x17CF DUP8 DUP3 DUP9 ADD PUSH2 0x1747 JUMP JUMPDEST SWAP2 POP POP SWAP3 SWAP6 SWAP2 SWAP5 POP SWAP3 POP JUMP JUMPDEST PUSH1 0x0 DUP2 ISZERO ISZERO SWAP1 POP SWAP2 SWAP1 POP JUMP JUMPDEST PUSH2 0x17F0 DUP2 PUSH2 0x17DB JUMP JUMPDEST DUP3 MSTORE POP POP JUMP JUMPDEST PUSH1 0x0 PUSH1 0x20 DUP3 ADD SWAP1 POP PUSH2 0x180B PUSH1 0x0 DUP4 ADD DUP5 PUSH2 0x17E7 JUMP JUMPDEST SWAP3 SWAP2 POP POP JUMP JUMPDEST PUSH32 0x4E487B7100000000000000000000000000000000000000000000000000000000 PUSH1 0x0 MSTORE PUSH1 0x32 PUSH1 0x4 MSTORE PUSH1 0x24 PUSH1 0x0 REVERT JUMPDEST PUSH32 0x4E487B7100000000000000000000000000000000000000000000000000000000 PUSH1 0x0 MSTORE PUSH1 0x11 PUSH1 0x4 MSTORE PUSH1 0x24 PUSH1 0x0 REVERT JUMPDEST PUSH1 0x0 PUSH2 0x187A DUP3 PUSH2 0x154F JUMP JUMPDEST SWAP2 POP PUSH32 0xFFFFFFFFFFFFFFFFFFFFFFFFFFFFFFFFFFFFFFFFFFFFFFFFFFFFFFFFFFFFFFFF DUP3 EQ ISZERO PUSH2 0x18AD JUMPI PUSH2 0x18AC PUSH2 0x1840 JUMP JUMPDEST JUMPDEST PUSH1 0x1 DUP3 ADD SWAP1 POP SWAP2 SWAP1 POP JUMP JUMPDEST PUSH1 0x0 PUSH2 0x18C3 DUP3 PUSH2 0x154F JUMP JUMPDEST SWAP2 POP PUSH2 0x18CE DUP4 PUSH2 0x154F JUMP JUMPDEST SWAP3 POP DUP3 PUSH32 0xFFFFFFFFFFFFFFFFFFFFFFFFFFFFFFFFFFFFFFFFFFFFFFFFFFFFFFFFFFFFFFFF SUB DUP3 GT ISZERO PUSH2 0x1903 JUMPI PUSH2 0x1902 PUSH2 0x1840 JUMP JUMPDEST JUMPDEST DUP3 DUP3 ADD SWAP1 POP SWAP3 SWAP2 POP POP JUMP JUMPDEST PUSH1 0x0 DUP3 DUP3 MSTORE PUSH1 0x20 DUP3 ADD SWAP1 POP SWAP3 SWAP2 POP POP JUMP JUMPDEST PUSH32 0x76657269666965722D6261642D696E7075740000000000000000000000000000 PUSH1 0x0 DUP3 ADD MSTORE POP JUMP JUMPDEST PUSH1 0x0 PUSH2 0x1955 PUSH1 0x12 DUP4 PUSH2 0x190E JUMP JUMPDEST SWAP2 POP PUSH2 0x1960 DUP3 PUSH2 0x191F JUMP JUMPDEST PUSH1 0x20 DUP3 ADD SWAP1 POP SWAP2 SWAP1 POP JUMP JUMPDEST PUSH1 0x0 PUSH1 0x20 DUP3 ADD SWAP1 POP DUP2 DUP2 SUB PUSH1 0x0 DUP4 ADD MSTORE PUSH2 0x1984 DUP2 PUSH2 0x1948 JUMP JUMPDEST SWAP1 POP SWAP2 SWAP1 POP JUMP JUMPDEST PUSH32 0x76657269666965722D6774652D736E61726B2D7363616C61722D6669656C6400 PUSH1 0x0 DUP3 ADD MSTORE POP JUMP JUMPDEST PUSH1 0x0 PUSH2 0x19C1 PUSH1 0x1F DUP4 PUSH2 0x190E JUMP JUMPDEST SWAP2 POP PUSH2 0x19CC DUP3 PUSH2 0x198B JUMP JUMPDEST PUSH1 0x20 DUP3 ADD SWAP1 POP SWAP2 SWAP1 POP JUMP JUMPDEST PUSH1 0x0 PUSH1 0x20 DUP3 ADD SWAP1 POP DUP2 DUP2 SUB PUSH1 0x0 DUP4 ADD MSTORE PUSH2 0x19F0 DUP2 PUSH2 0x19B4 JUMP JUMPDEST SWAP1 POP SWAP2 SWAP1 POP JUMP JUMPDEST PUSH32 0x70616972696E672D6D756C2D6661696C65640000000000000000000000000000 PUSH1 0x0 DUP3 ADD MSTORE POP JUMP JUMPDEST PUSH1 0x0 PUSH2 0x1A2D PUSH1 0x12 DUP4 PUSH2 0x190E JUMP JUMPDEST SWAP2 POP PUSH2 0x1A38 DUP3 PUSH2 0x19F7 JUMP JUMPDEST PUSH1 0x20 DUP3 ADD SWAP1 POP SWAP2 SWAP1 POP JUMP JUMPDEST PUSH1 0x0 PUSH1 0x20 DUP3 ADD SWAP1 POP DUP2 DUP2 SUB PUSH1 0x0 DUP4 ADD MSTORE PUSH2 0x1A5C DUP2 PUSH2 0x1A20 JUMP JUMPDEST SWAP1 POP SWAP2 SWAP1 POP JUMP JUMPDEST PUSH32 0x70616972696E672D6164642D6661696C65640000000000000000000000000000 PUSH1 0x0 DUP3 ADD MSTORE POP JUMP JUMPDEST PUSH1 0x0 PUSH2 0x1A99 PUSH1 0x12 DUP4 PUSH2 0x190E JUMP JUMPDEST SWAP2 POP PUSH2 0x1AA4 DUP3 PUSH2 0x1A63 JUMP JUMPDEST PUSH1 0x20 DUP3 ADD SWAP1 POP SWAP2 SWAP1 POP JUMP JUMPDEST PUSH1 0x0 PUSH1 0x20 DUP3 ADD SWAP1 POP DUP2 DUP2 SUB PUSH1 0x0 DUP4 ADD MSTORE PUSH2 0x1AC8 DUP2 PUSH2 0x1A8C JUMP JUMPDEST SWAP1 POP SWAP2 SWAP1 POP JUMP JUMPDEST PUSH32 0x4E487B7100000000000000000000000000000000000000000000000000000000 PUSH1 0x0 MSTORE PUSH1 0x12 PUSH1 0x4 MSTORE PUSH1 0x24 PUSH1 0x0 REVERT JUMPDEST PUSH1 0x0 PUSH2 0x1B09 DUP3 PUSH2 0x154F JUMP JUMPDEST SWAP2 POP PUSH2 0x1B14 DUP4 PUSH2 0x154F JUMP JUMPDEST SWAP3 POP DUP3 PUSH2 0x1B24 JUMPI PUSH2 0x1B23 PUSH2 0x1ACF JUMP JUMPDEST JUMPDEST DUP3 DUP3 MOD SWAP1 POP SWAP3 SWAP2 POP POP JUMP JUMPDEST PUSH1 0x0 PUSH2 0x1B3A DUP3 PUSH2 0x154F JUMP JUMPDEST SWAP2 POP PUSH2 0x1B45 DUP4 PUSH2 0x154F JUMP JUMPDEST SWAP3 POP DUP3 DUP3 LT ISZERO PUSH2 0x1B58 JUMPI PUSH2 0x1B57 PUSH2 0x1840 JUMP JUMPDEST JUMPDEST DUP3 DUP3 SUB SWAP1 POP SWAP3 SWAP2 POP POP JUMP JUMPDEST PUSH32 0x70616972696E672D6C656E677468732D6661696C656400000000000000000000 PUSH1 0x0 DUP3 ADD MSTORE POP JUMP JUMPDEST PUSH1 0x0 PUSH2 0x1B99 PUSH1 0x16 DUP4 PUSH2 0x190E JUMP JUMPDEST SWAP2 POP PUSH2 0x1BA4 DUP3 PUSH2 0x1B63 JUMP JUMPDEST PUSH1 0x20 DUP3 ADD SWAP1 POP SWAP2 SWAP1 POP JUMP JUMPDEST PUSH1 0x0 PUSH1 0x20 DUP3 ADD SWAP1 POP DUP2 DUP2 SUB PUSH1 0x0 DUP4 ADD MSTORE PUSH2 0x1BC8 DUP2 PUSH2 0x1B8C JUMP JUMPDEST SWAP1 POP SWAP2 SWAP1 POP JUMP JUMPDEST PUSH1 0x0 PUSH2 0x1BDA DUP3 PUSH2 0x154F JUMP JUMPDEST SWAP2 POP PUSH2 0x1BE5 DUP4 PUSH2 0x154F JUMP JUMPDEST SWAP3 POP DUP2 PUSH32 0xFFFFFFFFFFFFFFFFFFFFFFFFFFFFFFFFFFFFFFFFFFFFFFFFFFFFFFFFFFFFFFFF DIV DUP4 GT DUP3 ISZERO ISZERO AND ISZERO PUSH2 0x1C1E JUMPI PUSH2 0x1C1D PUSH2 0x1840 JUMP JUMPDEST JUMPDEST DUP3 DUP3 MUL SWAP1 POP SWAP3 SWAP2 POP POP JUMP JUMPDEST PUSH32 0x70616972696E672D6F70636F64652D6661696C65640000000000000000000000 PUSH1 0x0 DUP3 ADD MSTORE POP JUMP JUMPDEST PUSH1 0x0 PUSH2 0x1C5F PUSH1 0x15 DUP4 PUSH2 0x190E JUMP JUMPDEST SWAP2 POP PUSH2 0x1C6A DUP3 PUSH2 0x1C29 JUMP JUMPDEST PUSH1 0x20 DUP3 ADD SWAP1 POP SWAP2 SWAP1 POP JUMP JUMPDEST PUSH1 0x0 PUSH1 0x20 DUP3 ADD SWAP1 POP DUP2 DUP2 SUB PUSH1 0x0 DUP4 ADD MSTORE PUSH2 0x1C8E DUP2 PUSH2 0x1C52 JUMP JUMPDEST SWAP1 POP SWAP2 SWAP1 POP JUMP INVALID LOG2 PUSH5 0x6970667358 0x22 SLT KECCAK256 SWAP1 PUSH13 0x931253A25B2EDA6F2F6D2B676A 0xDC GT 0x5F 0xEE BALANCE PC 0x27 SIGNEXTEND EXTCODESIZE PUSH6 0x9EF49773E2C BYTE PUSH5 0x736F6C6343 STOP ADDMOD EXP STOP CALLER "},"methodIdentifiers":{"verifyProof(uint256[2],uint256[2][2],uint256[2],uint256[6])":"f398789b"}}}}}